{
    "contractName": "KipuBank",
    "abi": [
        {
            "inputs": [
                {
                    "internalType": "uint256",
                    "name": "_limit",
                    "type": "uint256"
                },
                {
                    "internalType": "uint256",
                    "name": "_threshold",
                    "type": "uint256"
                },
                {
                    "internalType": "address",
                    "name": "_owner",
                    "type": "address"
                },
                {
                    "internalType": "address",
                    "name": "_feed",
                    "type": "address"
                },
                {
                    "internalType": "address",
                    "name": "_tokenERC20",
                    "type": "address"
                },
                {
                    "internalType": "address",
                    "name": "_router",
                    "type": "address"
                }
            ],
            "stateMutability": "nonpayable",
            "type": "constructor"
        },
        {
            "inputs": [],
            "name": "AccessControlBadConfirmation",
            "type": "error"
        },
        {
            "inputs": [
                {
                    "internalType": "address",
                    "name": "account",
                    "type": "address"
                },
                {
                    "internalType": "bytes32",
                    "name": "neededRole",
                    "type": "bytes32"
                }
            ],
            "name": "AccessControlUnauthorizedAccount",
            "type": "error"
        },
        {
            "inputs": [],
            "name": "EnforcedPause",
            "type": "error"
        },
        {
            "inputs": [],
            "name": "ExpectedPause",
            "type": "error"
        },
        {
            "inputs": [
                {
                    "internalType": "uint256",
                    "name": "price",
                    "type": "uint256"
                }
            ],
            "name": "KipuBank_CommittedOracle",
            "type": "error"
        },
        {
            "inputs": [
                {
                    "internalType": "uint256",
                    "name": "amount",
                    "type": "uint256"
                }
            ],
            "name": "KipuBank_ExceededLimit",
            "type": "error"
        },
        {
            "inputs": [
                {
                    "internalType": "uint256",
                    "name": "amount",
                    "type": "uint256"
                }
            ],
            "name": "KipuBank_ExceededThreshold",
            "type": "error"
        },
        {
            "inputs": [
                {
                    "internalType": "uint256",
                    "name": "time",
                    "type": "uint256"
                }
            ],
            "name": "KipuBank_ExceededTime",
            "type": "error"
        },
        {
            "inputs": [
                {
                    "internalType": "address",
                    "name": "holder",
                    "type": "address"
                },
                {
                    "internalType": "uint256",
                    "name": "amount",
                    "type": "uint256"
                }
            ],
            "name": "KipuBank_InsufficientsFunds",
            "type": "error"
        },
        {
            "inputs": [],
            "name": "KipuBank_InvalidAddress",
            "type": "error"
        },
        {
            "inputs": [
                {
                    "internalType": "address",
                    "name": "newFeed",
                    "type": "address"
                }
            ],
            "name": "KipuBank_InvalidFeed",
            "type": "error"
        },
        {
            "inputs": [
                {
                    "internalType": "uint256",
                    "name": "limit",
                    "type": "uint256"
                },
                {
                    "internalType": "uint256",
                    "name": "threshold",
                    "type": "uint256"
                }
            ],
            "name": "KipuBank_InvalidInit",
            "type": "error"
        },
        {
            "inputs": [
                {
                    "internalType": "uint256",
                    "name": "limit",
                    "type": "uint256"
                }
            ],
            "name": "KipuBank_InvalidLimit",
            "type": "error"
        },
        {
            "inputs": [
                {
                    "internalType": "uint256",
                    "name": "result",
                    "type": "uint256"
                }
            ],
            "name": "KipuBank_InvalidOperation",
            "type": "error"
        },
        {
            "inputs": [
                {
                    "internalType": "uint256",
                    "name": "threshold",
                    "type": "uint256"
                }
            ],
            "name": "KipuBank_InvalidThreshold",
            "type": "error"
        },
        {
            "inputs": [
                {
                    "internalType": "uint256",
                    "name": "amount",
                    "type": "uint256"
                }
            ],
            "name": "KipuBank_LowerMinimumAmount",
            "type": "error"
        },
        {
            "inputs": [
                {
                    "internalType": "address",
                    "name": "account",
                    "type": "address"
                }
            ],
            "name": "KipuBank_NonPermittedAccess",
            "type": "error"
        },
        {
            "inputs": [
                {
                    "internalType": "uint256",
                    "name": "amount",
                    "type": "uint256"
                }
            ],
            "name": "KipuBank_NonPermittedAmount",
            "type": "error"
        },
        {
            "inputs": [
                {
                    "internalType": "address",
                    "name": "holder",
                    "type": "address"
                }
            ],
            "name": "KipuBank_NonPermittedOperation",
            "type": "error"
        },
        {
            "inputs": [
                {
                    "internalType": "uint256",
                    "name": "price",
                    "type": "uint256"
                }
            ],
            "name": "KipuBank_OutdatedPrice",
            "type": "error"
        },
        {
            "inputs": [
                {
                    "internalType": "address",
                    "name": "holder",
                    "type": "address"
                },
                {
                    "internalType": "uint256",
                    "name": "amount",
                    "type": "uint256"
                }
            ],
            "name": "KipuBank_RejectedWithdraw",
            "type": "error"
        },
        {
            "inputs": [
                {
                    "internalType": "address",
                    "name": "holder",
                    "type": "address"
                }
            ],
            "name": "KipuBank_ZeroAmount",
            "type": "error"
        },
        {
            "inputs": [
                {
                    "internalType": "address",
                    "name": "owner",
                    "type": "address"
                }
            ],
            "name": "OwnableInvalidOwner",
            "type": "error"
        },
        {
            "inputs": [
                {
                    "internalType": "address",
                    "name": "account",
                    "type": "address"
                }
            ],
            "name": "OwnableUnauthorizedAccount",
            "type": "error"
        },
        {
            "inputs": [],
            "name": "ReentrancyGuardReentrantCall",
            "type": "error"
        },
        {
            "inputs": [
                {
                    "internalType": "address",
                    "name": "token",
                    "type": "address"
                }
            ],
            "name": "SafeERC20FailedOperation",
            "type": "error"
        },
        {
            "anonymous": false,
            "inputs": [
                {
                    "indexed": true,
                    "internalType": "address",
                    "name": "pauser",
                    "type": "address"
                },
                {
                    "indexed": false,
                    "internalType": "uint256",
                    "name": "time",
                    "type": "uint256"
                }
            ],
            "name": "KipuBank_ContractPaused",
            "type": "event"
        },
        {
            "anonymous": false,
            "inputs": [
                {
                    "indexed": true,
                    "internalType": "address",
                    "name": "unpauser",
                    "type": "address"
                },
                {
                    "indexed": false,
                    "internalType": "uint256",
                    "name": "time",
                    "type": "uint256"
                }
            ],
            "name": "KipuBank_ContractUnpaused",
            "type": "event"
        },
        {
            "anonymous": false,
            "inputs": [
                {
                    "indexed": true,
                    "internalType": "address",
                    "name": "previousFeed",
                    "type": "address"
                },
                {
                    "indexed": true,
                    "internalType": "address",
                    "name": "newFeed",
                    "type": "address"
                }
            ],
            "name": "KipuBank_FeedUpdated",
            "type": "event"
        },
        {
            "anonymous": false,
            "inputs": [
                {
                    "indexed": true,
                    "internalType": "address",
                    "name": "account",
                    "type": "address"
                },
                {
                    "indexed": false,
                    "internalType": "bytes32",
                    "name": "role",
                    "type": "bytes32"
                }
            ],
            "name": "KipuBank_GrantedRole",
            "type": "event"
        },
        {
            "anonymous": false,
            "inputs": [
                {
                    "indexed": true,
                    "internalType": "address",
                    "name": "account",
                    "type": "address"
                },
                {
                    "indexed": false,
                    "internalType": "bytes32",
                    "name": "role",
                    "type": "bytes32"
                }
            ],
            "name": "KipuBank_RoleRevoked",
            "type": "event"
        },
        {
            "anonymous": false,
            "inputs": [
                {
                    "indexed": true,
                    "internalType": "address",
                    "name": "holder",
                    "type": "address"
                },
                {
                    "indexed": false,
                    "internalType": "uint256",
                    "name": "amount",
                    "type": "uint256"
                }
            ],
            "name": "KipuBank_SuccessfulDeposit",
            "type": "event"
        },
        {
            "anonymous": false,
            "inputs": [
                {
                    "indexed": true,
                    "internalType": "address",
                    "name": "user",
                    "type": "address"
                },
                {
                    "indexed": true,
                    "internalType": "address",
                    "name": "tokenIn",
                    "type": "address"
                },
                {
                    "indexed": true,
                    "internalType": "address",
                    "name": "tokenOut",
                    "type": "address"
                },
                {
                    "indexed": false,
                    "internalType": "uint256",
                    "name": "amountIn",
                    "type": "uint256"
                },
                {
                    "indexed": false,
                    "internalType": "uint256",
                    "name": "amountOut",
                    "type": "uint256"
                }
            ],
            "name": "KipuBank_SuccessfulSwap",
            "type": "event"
        },
        {
            "anonymous": false,
            "inputs": [
                {
                    "indexed": true,
                    "internalType": "address",
                    "name": "holder",
                    "type": "address"
                },
                {
                    "indexed": false,
                    "internalType": "uint256",
                    "name": "amount",
                    "type": "uint256"
                }
            ],
            "name": "KipuBank_SuccessfulWithdrawal",
            "type": "event"
        },
        {
            "anonymous": false,
            "inputs": [
                {
                    "indexed": false,
                    "internalType": "address",
                    "name": "token",
                    "type": "address"
                }
            ],
            "name": "KipuBank_TokenApproved",
            "type": "event"
        },
        {
            "anonymous": false,
            "inputs": [
                {
                    "indexed": false,
                    "internalType": "address",
                    "name": "token",
                    "type": "address"
                }
            ],
            "name": "KipuBank_TokenRemoved",
            "type": "event"
        },
        {
            "anonymous": false,
            "inputs": [
                {
                    "indexed": true,
                    "internalType": "address",
                    "name": "previousOwner",
                    "type": "address"
                },
                {
                    "indexed": true,
                    "internalType": "address",
                    "name": "newOwner",
                    "type": "address"
                }
            ],
            "name": "KipuBank_TransferredOwner",
            "type": "event"
        },
        {
            "anonymous": false,
            "inputs": [
                {
                    "indexed": true,
                    "internalType": "address",
                    "name": "previousOwner",
                    "type": "address"
                },
                {
                    "indexed": true,
                    "internalType": "address",
                    "name": "newOwner",
                    "type": "address"
                }
            ],
            "name": "OwnershipTransferred",
            "type": "event"
        },
        {
            "anonymous": false,
            "inputs": [
                {
                    "indexed": false,
                    "internalType": "address",
                    "name": "account",
                    "type": "address"
                }
            ],
            "name": "Paused",
            "type": "event"
        },
        {
            "anonymous": false,
            "inputs": [
                {
                    "indexed": true,
                    "internalType": "bytes32",
                    "name": "role",
                    "type": "bytes32"
                },
                {
                    "indexed": true,
                    "internalType": "bytes32",
                    "name": "previousAdminRole",
                    "type": "bytes32"
                },
                {
                    "indexed": true,
                    "internalType": "bytes32",
                    "name": "newAdminRole",
                    "type": "bytes32"
                }
            ],
            "name": "RoleAdminChanged",
            "type": "event"
        },
        {
            "anonymous": false,
            "inputs": [
                {
                    "indexed": true,
                    "internalType": "bytes32",
                    "name": "role",
                    "type": "bytes32"
                },
                {
                    "indexed": true,
                    "internalType": "address",
                    "name": "account",
                    "type": "address"
                },
                {
                    "indexed": true,
                    "internalType": "address",
                    "name": "sender",
                    "type": "address"
                }
            ],
            "name": "RoleGranted",
            "type": "event"
        },
        {
            "anonymous": false,
            "inputs": [
                {
                    "indexed": true,
                    "internalType": "bytes32",
                    "name": "role",
                    "type": "bytes32"
                },
                {
                    "indexed": true,
                    "internalType": "address",
                    "name": "account",
                    "type": "address"
                },
                {
                    "indexed": true,
                    "internalType": "address",
                    "name": "sender",
                    "type": "address"
                }
            ],
            "name": "RoleRevoked",
            "type": "event"
        },
        {
            "anonymous": false,
            "inputs": [
                {
                    "indexed": false,
                    "internalType": "address",
                    "name": "account",
                    "type": "address"
                }
            ],
            "name": "Unpaused",
            "type": "event"
        },
        {
            "stateMutability": "payable",
            "type": "fallback"
        },
        {
            "inputs": [],
            "name": "DEFAULT_ADMIN_ROLE",
            "outputs": [
                {
                    "internalType": "bytes32",
                    "name": "",
                    "type": "bytes32"
                }
            ],
            "stateMutability": "view",
            "type": "function"
        },
        {
            "inputs": [],
            "name": "FEED_MANAGER",
            "outputs": [
                {
                    "internalType": "bytes32",
                    "name": "",
                    "type": "bytes32"
                }
            ],
            "stateMutability": "view",
            "type": "function"
        },
        {
            "inputs": [],
            "name": "MIN_DEPOSIT",
            "outputs": [
                {
                    "internalType": "uint256",
                    "name": "",
                    "type": "uint256"
                }
            ],
            "stateMutability": "view",
            "type": "function"
        },
        {
            "inputs": [],
            "name": "PAUSER",
            "outputs": [
                {
                    "internalType": "bytes32",
                    "name": "",
                    "type": "bytes32"
                }
            ],
            "stateMutability": "view",
            "type": "function"
        },
        {
            "inputs": [],
            "name": "ROUTER",
            "outputs": [
                {
                    "internalType": "contract IUniswapV2Router02",
                    "name": "",
                    "type": "address"
                }
            ],
            "stateMutability": "view",
            "type": "function"
        },
        {
            "inputs": [
                {
                    "internalType": "address",
                    "name": "_token",
                    "type": "address"
                }
            ],
            "name": "approveToken",
            "outputs": [],
            "stateMutability": "nonpayable",
            "type": "function"
        },
        {
            "inputs": [
                {
                    "internalType": "address",
                    "name": "_holder",
                    "type": "address"
                },
                {
                    "internalType": "address",
                    "name": "_token",
                    "type": "address"
                }
            ],
            "name": "balanceOf",
            "outputs": [
                {
                    "internalType": "uint256",
                    "name": "",
                    "type": "uint256"
                }
            ],
            "stateMutability": "view",
            "type": "function"
        },
        {
            "inputs": [],
            "name": "depositETH",
            "outputs": [],
            "stateMutability": "payable",
            "type": "function"
        },
        {
            "inputs": [
                {
                    "internalType": "uint256",
                    "name": "_amountIn",
                    "type": "uint256"
                },
                {
                    "internalType": "uint256",
                    "name": "_amountOutMin",
                    "type": "uint256"
                },
                {
                    "internalType": "address",
                    "name": "_tokenIn",
                    "type": "address"
                },
                {
                    "internalType": "uint256",
                    "name": "_deadline",
                    "type": "uint256"
                }
            ],
            "name": "depositToken",
            "outputs": [],
            "stateMutability": "nonpayable",
            "type": "function"
        },
        {
            "inputs": [
                {
                    "internalType": "uint256",
                    "name": "_amount",
                    "type": "uint256"
                }
            ],
            "name": "depositUSDC",
            "outputs": [],
            "stateMutability": "nonpayable",
            "type": "function"
        },
        {
            "inputs": [
                {
                    "internalType": "bytes32",
                    "name": "role",
                    "type": "bytes32"
                }
            ],
            "name": "getRoleAdmin",
            "outputs": [
                {
                    "internalType": "bytes32",
                    "name": "",
                    "type": "bytes32"
                }
            ],
            "stateMutability": "view",
            "type": "function"
        },
        {
            "inputs": [
                {
                    "internalType": "bytes32",
                    "name": "role",
                    "type": "bytes32"
                },
                {
                    "internalType": "address",
                    "name": "account",
                    "type": "address"
                }
            ],
            "name": "grantRole",
            "outputs": [],
            "stateMutability": "nonpayable",
            "type": "function"
        },
        {
            "inputs": [
                {
                    "internalType": "bytes32",
                    "name": "role",
                    "type": "bytes32"
                },
                {
                    "internalType": "address",
                    "name": "account",
                    "type": "address"
                }
            ],
            "name": "hasRole",
            "outputs": [
                {
                    "internalType": "bool",
                    "name": "",
                    "type": "bool"
                }
            ],
            "stateMutability": "view",
            "type": "function"
        },
        {
            "inputs": [
                {
                    "internalType": "address",
                    "name": "_token",
                    "type": "address"
                }
            ],
            "name": "isTokenAllowed",
            "outputs": [
                {
                    "internalType": "bool",
                    "name": "",
                    "type": "bool"
                }
            ],
            "stateMutability": "view",
            "type": "function"
        },
        {
            "inputs": [],
            "name": "owner",
            "outputs": [
                {
                    "internalType": "address",
                    "name": "",
                    "type": "address"
                }
            ],
            "stateMutability": "view",
            "type": "function"
        },
        {
            "inputs": [],
            "name": "pauseContract",
            "outputs": [],
            "stateMutability": "nonpayable",
            "type": "function"
        },
        {
            "inputs": [],
            "name": "paused",
            "outputs": [
                {
                    "internalType": "bool",
                    "name": "",
                    "type": "bool"
                }
            ],
            "stateMutability": "view",
            "type": "function"
        },
        {
            "inputs": [
                {
                    "internalType": "address",
                    "name": "_token",
                    "type": "address"
                }
            ],
            "name": "removeToken",
            "outputs": [],
            "stateMutability": "nonpayable",
            "type": "function"
        },
        {
            "inputs": [],
            "name": "renounceOwnership",
            "outputs": [],
            "stateMutability": "nonpayable",
            "type": "function"
        },
        {
            "inputs": [
                {
                    "internalType": "bytes32",
                    "name": "role",
                    "type": "bytes32"
                },
                {
                    "internalType": "address",
                    "name": "callerConfirmation",
                    "type": "address"
                }
            ],
            "name": "renounceRole",
            "outputs": [],
            "stateMutability": "nonpayable",
            "type": "function"
        },
        {
            "inputs": [
                {
                    "internalType": "bytes32",
                    "name": "role",
                    "type": "bytes32"
                },
                {
                    "internalType": "address",
                    "name": "account",
                    "type": "address"
                }
            ],
            "name": "revokeRole",
            "outputs": [],
            "stateMutability": "nonpayable",
            "type": "function"
        },
        {
            "inputs": [],
            "name": "s_feed",
            "outputs": [
                {
                    "internalType": "contract AggregatorV3Interface",
                    "name": "",
                    "type": "address"
                }
            ],
            "stateMutability": "view",
            "type": "function"
        },
        {
            "inputs": [
                {
                    "internalType": "address",
                    "name": "_newFeed",
                    "type": "address"
                }
            ],
            "name": "setFeeds",
            "outputs": [],
            "stateMutability": "nonpayable",
            "type": "function"
        },
        {
            "inputs": [
                {
                    "internalType": "bytes4",
                    "name": "interfaceId",
                    "type": "bytes4"
                }
            ],
            "name": "supportsInterface",
            "outputs": [
                {
                    "internalType": "bool",
                    "name": "",
                    "type": "bool"
                }
            ],
            "stateMutability": "view",
            "type": "function"
        },
        {
            "inputs": [
                {
                    "internalType": "address",
                    "name": "_newOwner",
                    "type": "address"
                }
            ],
            "name": "transferOwnership",
            "outputs": [],
            "stateMutability": "nonpayable",
            "type": "function"
        },
        {
            "inputs": [],
            "name": "unpauseContract",
            "outputs": [],
            "stateMutability": "nonpayable",
            "type": "function"
        },
        {
            "inputs": [],
            "name": "viewAccountTotalBalance",
            "outputs": [
                {
                    "internalType": "uint256",
                    "name": "amount_",
                    "type": "uint256"
                }
            ],
            "stateMutability": "view",
            "type": "function"
        },
        {
            "inputs": [],
            "name": "viewContractBalance",
            "outputs": [
                {
                    "internalType": "uint256",
                    "name": "",
                    "type": "uint256"
                }
            ],
            "stateMutability": "view",
            "type": "function"
        },
        {
            "inputs": [],
            "name": "viewContractState",
            "outputs": [
                {
                    "internalType": "bool",
                    "name": "isPaused",
                    "type": "bool"
                },
                {
                    "internalType": "uint256",
                    "name": "totalContract",
                    "type": "uint256"
                },
                {
                    "internalType": "uint256",
                    "name": "limit",
                    "type": "uint256"
                },
                {
                    "internalType": "uint256",
                    "name": "threshold",
                    "type": "uint256"
                },
                {
                    "internalType": "address",
                    "name": "actualFeed",
                    "type": "address"
                }
            ],
            "stateMutability": "view",
            "type": "function"
        },
        {
            "inputs": [],
            "name": "viewDepositsCount",
            "outputs": [
                {
                    "internalType": "uint256",
                    "name": "",
                    "type": "uint256"
                }
            ],
            "stateMutability": "view",
            "type": "function"
        },
        {
            "inputs": [],
            "name": "viewWithdrawCount",
            "outputs": [
                {
                    "internalType": "uint256",
                    "name": "",
                    "type": "uint256"
                }
            ],
            "stateMutability": "view",
            "type": "function"
        },
        {
            "inputs": [
                {
                    "internalType": "uint256",
                    "name": "_amount",
                    "type": "uint256"
                }
            ],
            "name": "withdrawETH",
            "outputs": [],
            "stateMutability": "nonpayable",
            "type": "function"
        },
        {
            "inputs": [
                {
                    "internalType": "uint256",
                    "name": "_amount",
                    "type": "uint256"
                }
            ],
            "name": "withdrawUSDC",
            "outputs": [],
            "stateMutability": "nonpayable",
            "type": "function"
        },
        {
            "stateMutability": "payable",
            "type": "receive"
        }
    ],
    "bytecode": "6101003461024e57601f6125e538819003918201601f19168301916001600160401b038311848410176102525780849260c09460405283398101031261024e57805160208201519161005360408201610266565b9061006060608201610266565b61007860a061007160808501610266565b9301610266565b60017f9b779b17422d0df92223018b32b4d1fa46e071723d6817e2486d003becc55f0055906001600160a01b038416801561023b575f80546001600160a01b03198116831782556001600160a01b0316907f8be0079c531659141344cd1fd0a4f28419497f9722a3daafe3b4186f6b6457e09080a35f6003555f6004558415610228578515610215578486116101fe576001600160a01b03169182156101ef576001600160a01b03169081156101ef576001600160a01b03169283156101ef57806101456101559261027a565b5061014f816102f0565b50610383565b5060a052600280546001600160a01b03191691909117905560805260e05260c05260405161214e908161041782396080518181816112ef01526117e6015260a0518181816102b5015281816108a701528181610bee01528181610df7015261123b015260c051818181610685015281816108800152610ac0015260e05181818161026e0152818161047d01528181610a9b01526114340152f35b634ab4914360e01b5f5260045ffd5b858563359f62ab60e01b5f5260045260245260445ffd5b856335c7f99b60e21b5f5260045260245ffd5b84633fd215f160e11b5f5260045260245ffd5b631e4fbdf760e01b5f525f60045260245ffd5b5f80fd5b634e487b7160e01b5f52604160045260245ffd5b51906001600160a01b038216820361024e57565b6001600160a01b0381165f9081525f5160206125a55f395f51905f52602052604090205460ff166102eb576001600160a01b03165f8181525f5160206125a55f395f51905f5260205260408120805460ff191660011790553391905f5160206125855f395f51905f528180a4600190565b505f90565b6001600160a01b0381165f9081525f5160206125655f395f51905f52602052604090205460ff166102eb576001600160a01b03165f8181525f5160206125655f395f51905f5260205260408120805460ff191660011790553391907f539440820030c4994db4e31b6b800deafd503688728f932addfe7a410515c14c905f5160206125855f395f51905f529080a4600190565b6001600160a01b0381165f9081525f5160206125c55f395f51905f52602052604090205460ff166102eb576001600160a01b03165f8181525f5160206125c55f395f51905f5260205260408120805460ff191660011790553391907f9bbb3ee3bdfbe971682b08854a620ca4bf696f8e0c269e5c5b129a18e64d29df905f5160206125855f395f51905f529080a460019056fe608080604052600436101561003c575b50361561002957634fb8f48b60e11b5f523360045260245ffd5b634fb8f48b60e11b5f523360045260245ffd5b5f3560e01c90816301ffc9a7146118ca575080630d3c6b34146118aa578063248a9ca31461187f5780632f2ff15d1461181557806332fe7b26146117d157806336568abe1461178d5780634267070e14611200578063439766ce146111395780635c8de34c1461111c5780635c975abb146110f85780635fa7b5841461106b5780636f05c64c14611043578063715018a614610fec5780637dc532c514610e8b57806380b2edd814610dbd5780638da5cb5b14610d9657806391d1485414610d4d578063977ae0d114610d27578063a217fddf14610d0d578063b33712c514610c39578063c70a94e214610bb1578063cb398eb314610b77578063d547741f14610af4578063d6cb9ec214610a69578063d9dc869414610a2f578063db81f99b14610854578063e1e158a514610836578063f14210a614610650578063f2fde38b14610572578063f6326fb314610442578063f688bcfb14610246578063f7888aec146101f45763f9eaee0d146101b3575f61000f565b346101f05760203660031901126101f0576001600160a01b036101d4611933565b165f526006602052602060ff60405f2054166040519015158152f35b5f80fd5b346101f05760403660031901126101f05761020d611933565b6001600160a01b0361021d61191d565b165f52600560205260405f209060018060a01b03165f52602052602060405f2054604051908152f35b346101f05760203660031901126101f057600435801561042f5761026c6003548261198c565b7f00000000000000000000000000000000000000000000000000000000000000001061041d5761029a611c35565b604051636eb1769f60e11b81523360048201523060248201527f00000000000000000000000000000000000000000000000000000000000000006001600160a01b0381169291602081604481875afa80156104125783915f916103dd575b50106103ca575f838152600560209081526040808320338452909152902054828101908110801590910293906103b757926103b5935f52600560205260405f2060018060a01b0333165f5260205260405f20556004546001600160801b036103618183166119e5565b16906001600160801b0319161760045561037d8260035461198c565b6003556040518281527f7b7cd0ddbbea241880e825e1eb51c30752cb96dd7efeb4be691ec55dfa4d896360203392a230903390611c52565b005b8363cc46168160e01b5f5260045260245ffd5b5063aa9a0a9d60e01b5f5260045260245ffd5b9150506020813d60201161040a575b816103f960209383611949565b810103126101f057829051856102f8565b3d91506103ec565b6040513d5f823e3d90fd5b63f367fd7360e01b5f5260045260245ffd5b631b8b1c9160e01b5f523360045260245ffd5b5f3660031901126101f057610455611c35565b61045e34611cf9565b633b9aca00341061055f57801561042f5761047b6003548261198c565b7f00000000000000000000000000000000000000000000000000000000000000001061041d57335f9081525f5160206120f95f395f51905f52602052604090205434810181811080159091029061054d57335f9081525f5160206120f95f395f51905f5260205260409020556004546001600160801b036104fd8183166119e5565b16906001600160801b03191617600455818101908110908115029061054d576003556040519081527f7b7cd0ddbbea241880e825e1eb51c30752cb96dd7efeb4be691ec55dfa4d896360203392a2005b63cc46168160e01b5f5260045260245ffd5b6369e1b71d60e11b5f523460045260245ffd5b346101f05760203660031901126101f05761058b611933565b610593611a02565b61059b611cdb565b5f546001600160a01b03166105af81611a28565b506105b981611a9c565b506105c381611b2d565b505f80546001600160a01b038481166001600160a01b031983168117845594610629939092869216907f8be0079c531659141344cd1fd0a4f28419497f9722a3daafe3b4186f6b6457e09080a361061981611dbc565b5061062381611e2d565b50611ec0565b507f8bfdc1921679312be467b7979ccd28dc2bc1d122f99c6123d976f0bf50a3b4355f80a3005b346101f05760203660031901126101f05760043561066c611c35565b610674612000565b61067d81611cf9565b801561042f577f0000000000000000000000000000000000000000000000000000000000000000811161082457335f9081525f5160206120f95f395f51905f526020526040902054821161080e57506106d581611cf9565b335f9081525f5160206120f95f395f51905f52602052604090205482810390811180159091029061054d57335f9081525f5160206120f95f395f51905f5260205260409020556004546001600160801b036001600160801b031961073c608084901c6119e5565b60801b16911617600455600354818103908111908115029061054d576003556040519081527f1ff21e81cff87fccbac096ad565f52cb1b358db04a736a6a137cceb4a287a70260203392a25f80808084335af13d15610809573d67ffffffffffffffff81116107f557604051906107bd601f8201601f191660200183611949565b81525f60203d92013e5b156107df5760015f5160206120b95f395f51905f5255005b636166243760e01b5f523360045260245260445ffd5b634e487b7160e01b5f52604160045260245ffd5b6107c7565b63baa7a16560e01b5f523360045260245260445ffd5b633b272ef160e11b5f5260045260245ffd5b346101f0575f3660031901126101f0576020604051633b9aca008152f35b346101f05760203660031901126101f057600435610870611c35565b610878612000565b801561042f577f00000000000000000000000000000000000000000000000000000000000000008111610824577f00000000000000000000000000000000000000000000000000000000000000006001600160a01b0381165f818152600560209081526040808320338452909152902054909291908211610a18575f83815260056020908152604080832033845290915290205482810390811180159091029061054d575f8481526005602090815260408083203384529091529020556004546001600160801b036001600160801b0319610956608084901c6119e5565b60801b16911617600455600354828103908111806103b75715026003556040518281527f1ff21e81cff87fccbac096ad565f52cb1b358db04a736a6a137cceb4a287a70260203392a26040519163a9059cbb60e01b5f523360045260245260205f60448180855af19160015f51148316156109f8575b5050156109e65760015f5160206120b95f395f51905f5255005b635274afe760e01b5f5260045260245ffd5b6001831516610a1057503b15153d15161682806109cc565b3d5f823e3d90fd5b5063baa7a16560e01b5f523360045260245260445ffd5b346101f0575f3660031901126101f05760206040517f539440820030c4994db4e31b6b800deafd503688728f932addfe7a410515c14c8152f35b346101f0575f3660031901126101f0575f546003546002546040805160a094851c60ff161515815260208101939093527f0000000000000000000000000000000000000000000000000000000000000000908301527f000000000000000000000000000000000000000000000000000000000000000060608301526001600160a01b03166080820152f35b346101f05760403660031901126101f0576004357f28005222cf9fd144f6f3a53f9517fd413afe5d9b67fd4cf81ddd0134867217026020610b3361191d565b610b3b611a02565b610b59610b54855f526001602052600160405f20015490565b611fc6565b610b638185611bbe565b506040519384526001600160a01b031692a2005b346101f0575f3660031901126101f05760206040517f9bbb3ee3bdfbe971682b08854a620ca4bf696f8e0c269e5c5b129a18e64d29df8152f35b346101f0575f3660031901126101f057335f9081525f5160206120f95f395f51905f526020908152604090912054610c3190610bec90611cf9565b7f00000000000000000000000000000000000000000000000000000000000000006001600160a01b03165f90815260058452604080822033835285529020549061198c565b604051908152f35b346101f0575f3660031901126101f0575f546001600160a01b03811633141580610ce8575b610cd557610c6a611cdb565b610c72611cdb565b60ff60a01b19165f556040513381527f5db9ee0a495bf2e6ff9c91a7834c1ba4fdd244a5e8aa4e537bd38aeae4b073aa90602090a16040514281527fe27d6b7b96c20e997f5082ff560410b815a1ecd7464e0ded63e7688e45d9b57360203392a2005b631287f60f60e31b5f523360045260245ffd5b50335f9081525f5160206120395f395f51905f52602052604090205460ff1615610c5e565b346101f0575f3660031901126101f05760206040515f8152f35b346101f0575f3660031901126101f05760206001600160801b0360045416604051908152f35b346101f05760403660031901126101f057610d6661191d565b6004355f52600160205260405f209060018060a01b03165f52602052602060ff60405f2054166040519015158152f35b346101f0575f3660031901126101f0575f546040516001600160a01b039091168152602090f35b346101f05760203660031901126101f057610dd6611933565b610dde611cdb565b610de6611a02565b6001600160a01b03168015610e7c577f00000000000000000000000000000000000000000000000000000000000000006001600160a01b03168114610e7c57805f52600660205260ff60405f205416610e7c576020817fe7df45e41c07efb61d521d62ae7a6f358b2ea415ef81bb6815444a94101b680b925f526006825260405f20600160ff19825416179055604051908152a1005b634ab4914360e01b5f5260045ffd5b346101f05760203660031901126101f057610ea4611933565b5f546001600160a01b031633141580610fc7575b610cd557610ec4611cdb565b6001600160a01b03168015610e7c57604051633fabe5a360e21b815260a081600481855afa805f925f92610f8e575b50610f0b57826383f68e8960e01b5f5260045260245ffd5b5f821315610f7b57610f20610e10914261197f565b11610f695750600280546001600160a01b0319811683179091556001600160a01b03167f076732c6a675470899fcb32bd34014d244a2b780f6812f8f818b26f893f79cdd5f80a3005b6302f8429d60e01b5f5260045260245ffd5b826383f68e8960e01b5f5260045260245ffd5b909250610fb3915060a03d60a011610fc0575b610fab8183611949565b8101906119b0565b5093925050919084610ef3565b503d610fa1565b50335f9081525f5160206120d95f395f51905f52602052604090205460ff1615610eb8565b346101f0575f3660031901126101f057611004611a02565b5f80546001600160a01b0319811682556001600160a01b03167f8be0079c531659141344cd1fd0a4f28419497f9722a3daafe3b4186f6b6457e08280a3005b346101f0575f3660031901126101f0576002546040516001600160a01b039091168152602090f35b346101f05760203660031901126101f057611084611933565b61108c611cdb565b611094611a02565b6001600160a01b03168015610e7c57805f52600660205260ff60405f20541615610e7c576020817f013bbca1e16e96497ad400f493630657b0301ad6de0d543d8217dbbf80abfb5b925f526006825260405f2060ff198154169055604051908152a1005b346101f0575f3660031901126101f057602060ff5f5460a01c166040519015158152f35b346101f0575f3660031901126101f0576020600354604051908152f35b346101f0575f3660031901126101f0575f546001600160a01b038116331415806111db575b610cd55761116a611c35565b611172611c35565b60ff60a01b1916600160a01b175f556040513381527f62e78cea01bee320cd4e420270b5ea74000d11b0c9f74754ebdbfc544b05a25890602090a16040514281527f46d2a254c0536d2a30fdfa06db40b28b09743afe6f05aeb9f03a56c4cec0ef0860203392a2005b50335f9081525f5160206120395f395f51905f52602052604090205460ff161561115e565b346101f05760803660031901126101f0576004356044356001600160a01b038116908190036101f05760643590821561042f578015610e7c577f00000000000000000000000000000000000000000000000000000000000000006001600160a01b031692818414610e7c57815f52600660205260ff60405f20541615610e7c5742831061177a5761128f611c35565b604051636eb1769f60e11b8152336004820152306024820152602081604481865afa80156104125782915f91611745575b5010611733576112d281303385611c52565b604051636eb1769f60e11b81523060048201526001600160a01b037f0000000000000000000000000000000000000000000000000000000000000000166024820181905290602081604481875afa80156104125783905f906116fd575b611339925061198c565b60405163095ea7b360e01b5f52826004528160245260205f60448180895af19060015f51148216156116ee575b6040521561161f575b506040519361137f606086611949565b600285526020850190604036833785511561160b5784825285516001101561160b576040808701889052516338ed173960e01b815260048101859052602480359082015260a06044820152955160a48701819052869260c4840192915f5b8181106115e9575050505f838195938193306064840152608483015203925af1928315610412575f9361154a575b5082515f19810190811161150c57611423908461196b565b5191611432600354809461198c565b7f0000000000000000000000000000000000000000000000000000000000000000106115205783515f1981019290831161150c5761147186938661196b565b5160405191825260208201527f92672ae25e20aae042fe15c737c733af1180f7fa259e1e15e9230790581c0ba660403392a481515f1981019190821161150c576114be6114c5928461196b565b519061198c565b60035580515f19810190811161150c576114de9161196b565b51905f52600560205260405f2060018060a01b0333165f5260205261150860405f2091825461198c565b9055005b634e487b7160e01b5f52601160045260245ffd5b8380515f19810190811161150c576115379161196b565b5163f367fd7360e01b5f5260045260245ffd5b9092503d805f833e61155c8183611949565b8101906020818303126101f05780519067ffffffffffffffff82116101f057019080601f830112156101f05781519167ffffffffffffffff83116107f5578260051b9060208201936115b16040519586611949565b84526020808501928201019283116101f057602001905b8282106115d957505050918461140b565b81518152602091820191016115c8565b82516001600160a01b03168552899550602094850194909201916001016113dd565b634e487b7160e01b5f52603260045260245ffd5b60405163095ea7b360e01b5f52826004525f60245260205f60448180895af19060015f51148216156116d6575b604052156116c3576040519063095ea7b360e01b5f528260045260245260205f60448180885af19060015f51148216156116a2575b6040521561168f578561136f565b82635274afe760e01b5f5260045260245ffd5b9060018115166116ba57843b15153d15161690611681565b503d5f823e3d90fd5b83635274afe760e01b5f5260045260245ffd5b9060018115166116ba57853b15153d1516169061164c565b90853b15153d15161690611366565b50506020813d60201161172b575b8161171860209383611949565b810103126101f05782611339915161132f565b3d915061170b565b63aa9a0a9d60e01b5f5260045260245ffd5b9150506020813d602011611772575b8161176160209383611949565b810103126101f057819051866112c0565b3d9150611754565b63ded2f0e760e01b5f524260045260245ffd5b346101f05760403660031901126101f0576117a661191d565b336001600160a01b038216036117c2576103b590600435611bbe565b63334bd91960e11b5f5260045ffd5b346101f0575f3660031901126101f0576040517f00000000000000000000000000000000000000000000000000000000000000006001600160a01b03168152602090f35b346101f05760403660031901126101f0576004357fbb64af0934ea050e4d96a052dd96271eb1b4c71f5677a4af06d78b20d9dd30cf602061185461191d565b61185c611a02565b611875610b54855f526001602052600160405f20015490565b610b638185611f53565b346101f05760203660031901126101f0576020610c316004355f526001602052600160405f20015490565b346101f0575f3660031901126101f057602060045460801c604051908152f35b346101f05760203660031901126101f0576004359063ffffffff60e01b82168092036101f057602091637965db0b60e01b811490811561190c575b5015158152f35b6301ffc9a760e01b14905083611905565b602435906001600160a01b03821682036101f057565b600435906001600160a01b03821682036101f057565b90601f8019910116810190811067ffffffffffffffff8211176107f557604052565b805182101561160b5760209160051b010190565b9190820391821161150c57565b9190820180921161150c57565b519069ffffffffffffffffffff821682036101f057565b908160a09103126101f0576119c481611999565b916020820151916040810151916119e2608060608401519301611999565b90565b6001600160801b03166001600160801b03811461150c5760010190565b5f546001600160a01b03163303611a1557565b63118cdaa760e01b5f523360045260245ffd5b6001600160a01b0381165f9081525f5160206120795f395f51905f52602052604090205460ff1615611a97576001600160a01b03165f8181525f5160206120795f395f51905f5260205260408120805460ff191690553391905f5160206120995f395f51905f528180a4600190565b505f90565b6001600160a01b0381165f9081525f5160206120395f395f51905f52602052604090205460ff1615611a97576001600160a01b03165f8181525f5160206120395f395f51905f5260205260408120805460ff191690553391907f539440820030c4994db4e31b6b800deafd503688728f932addfe7a410515c14c905f5160206120995f395f51905f529080a4600190565b6001600160a01b0381165f9081525f5160206120d95f395f51905f52602052604090205460ff1615611a97576001600160a01b03165f8181525f5160206120d95f395f51905f5260205260408120805460ff191690553391907f9bbb3ee3bdfbe971682b08854a620ca4bf696f8e0c269e5c5b129a18e64d29df905f5160206120995f395f51905f529080a4600190565b5f8181526001602090815260408083206001600160a01b038616845290915290205460ff1615611c2f575f8181526001602090815260408083206001600160a01b0395909516808452949091528120805460ff19169055339291905f5160206120995f395f51905f529080a4600190565b50505f90565b60ff5f5460a01c16611c4357565b63d93c066560e01b5f5260045ffd5b6040516323b872dd60e01b5f9081526001600160a01b039384166004529290931660245260449390935260209060648180865af19060015f5114821615611cc3575b6040525f60605215611ca35750565b635274afe760e01b5f9081526001600160a01b0391909116600452602490fd5b9060018115166116ba57823b15153d15161690611c94565b60ff5f5460a01c1615611cea57565b638dfc202b60e01b5f5260045ffd5b600254604051633fabe5a360e21b8152919060a090839060049082906001600160a01b03165afa8015610412575f925f91611d94575b505f831315611d8157611d45610e10914261197f565b11611d6e57818102918115918304141715908115029061054d5768056bc75e2d63100000900490565b506302f8429d60e01b5f5260045260245ffd5b82637f39b9bb60e11b5f5260045260245ffd5b9050611db091925060a03d60a011610fc057610fab8183611949565b5093925050915f611d2f565b6001600160a01b0381165f9081525f5160206120795f395f51905f52602052604090205460ff16611a97576001600160a01b03165f8181525f5160206120795f395f51905f5260205260408120805460ff191660011790553391905f5160206120595f395f51905f528180a4600190565b6001600160a01b0381165f9081525f5160206120d95f395f51905f52602052604090205460ff16611a97576001600160a01b03165f8181525f5160206120d95f395f51905f5260205260408120805460ff191660011790553391907f9bbb3ee3bdfbe971682b08854a620ca4bf696f8e0c269e5c5b129a18e64d29df905f5160206120595f395f51905f529080a4600190565b6001600160a01b0381165f9081525f5160206120395f395f51905f52602052604090205460ff16611a97576001600160a01b03165f8181525f5160206120395f395f51905f5260205260408120805460ff191660011790553391907f539440820030c4994db4e31b6b800deafd503688728f932addfe7a410515c14c905f5160206120595f395f51905f529080a4600190565b5f8181526001602090815260408083206001600160a01b038616845290915290205460ff16611c2f575f8181526001602081815260408084206001600160a01b0396909616808552959091528220805460ff19169091179055339291905f5160206120595f395f51905f529080a4600190565b5f81815260016020908152604080832033845290915290205460ff1615611fea5750565b63e2517d3f60e01b5f523360045260245260445ffd5b60025f5160206120b95f395f51905f5254146120295760025f5160206120b95f395f51905f5255565b633ee5aeb560e01b5f5260045ffdfeee6a051a4eb319b826a9879fc346938922568a0f3c12a74b6db6b2cfeaae29f42f8788117e7eff1d82e926ec794901d17c78024a50270940304540a733656f0da6eef7e35abe7026729641147f7915573c7e97b47efa546f5f6e3230263bcb49f6391f5c32d9c69d2a47ea670b442974b53935d1edc7fd64eb21e047a839171b9b779b17422d0df92223018b32b4d1fa46e071723d6817e2486d003becc55f008dfe7ac1583bcf6730e18dfd1a19198750d0d869d8dae972770ad80d8d9f8af005b8ccbb9d4d8fb16ea74ce3c29a41f1b461fbdaff4714a0d9a8eb05499746bca264697066735822122024f587fd326fb603d66af3976f6fde9cdeaf6c7db4bc3a3a91000e03e4fca58b64736f6c634300081e0033ee6a051a4eb319b826a9879fc346938922568a0f3c12a74b6db6b2cfeaae29f42f8788117e7eff1d82e926ec794901d17c78024a50270940304540a733656f0da6eef7e35abe7026729641147f7915573c7e97b47efa546f5f6e3230263bcb498dfe7ac1583bcf6730e18dfd1a19198750d0d869d8dae972770ad80d8d9f8af0",
    "sourcePath": "/home/canizafa/Documents/KipuBankV3/src/KipuBank.sol",
    "compiler": {
        "name": "solc",
        "version": "0.8.30+commit.73712a01"
    },
    "functionHashes": {
        "DEFAULT_ADMIN_ROLE()": "a217fddf",
        "FEED_MANAGER()": "cb398eb3",
        "MIN_DEPOSIT()": "e1e158a5",
        "PAUSER()": "d9dc8694",
        "ROUTER()": "32fe7b26",
        "approveToken(address)": "80b2edd8",
        "balanceOf(address,address)": "f7888aec",
        "depositETH()": "f6326fb3",
        "depositToken(uint256,uint256,address,uint256)": "4267070e",
        "depositUSDC(uint256)": "f688bcfb",
        "getRoleAdmin(bytes32)": "248a9ca3",
        "grantRole(bytes32,address)": "2f2ff15d",
        "hasRole(bytes32,address)": "91d14854",
        "isTokenAllowed(address)": "f9eaee0d",
        "owner()": "8da5cb5b",
        "pauseContract()": "439766ce",
        "paused()": "5c975abb",
        "removeToken(address)": "5fa7b584",
        "renounceOwnership()": "715018a6",
        "renounceRole(bytes32,address)": "36568abe",
        "revokeRole(bytes32,address)": "d547741f",
        "s_feed()": "6f05c64c",
        "setFeeds(address)": "7dc532c5",
        "supportsInterface(bytes4)": "01ffc9a7",
        "transferOwnership(address)": "f2fde38b",
        "unpauseContract()": "b33712c5",
        "viewAccountTotalBalance()": "c70a94e2",
        "viewContractBalance()": "5c8de34c",
        "viewContractState()": "d6cb9ec2",
        "viewDepositsCount()": "977ae0d1",
        "viewWithdrawCount()": "0d3c6b34",
        "withdrawETH(uint256)": "f14210a6",
        "withdrawUSDC(uint256)": "db81f99b"
    },
    "gasEstimates": {
        "creation": {
            "codeDepositCost": "1705200",
            "executionCost": "infinite",
            "totalCost": "infinite"
        },
        "external": {
            "": "847",
            "DEFAULT_ADMIN_ROLE()": "548",
            "FEED_MANAGER()": "615",
            "MIN_DEPOSIT()": "725",
            "PAUSER()": "681",
            "ROUTER()": "infinite",
            "approveToken(address)": "infinite",
            "balanceOf(address,address)": "3240",
            "depositETH()": "infinite",
            "depositToken(uint256,uint256,address,uint256)": "infinite",
            "depositUSDC(uint256)": "infinite",
            "getRoleAdmin(bytes32)": "2386",
            "grantRole(bytes32,address)": "infinite",
            "hasRole(bytes32,address)": "2837",
            "isTokenAllowed(address)": "3119",
            "owner()": "2609",
            "pauseContract()": "infinite",
            "paused()": "2471",
            "removeToken(address)": "32277",
            "renounceOwnership()": "28314",
            "renounceRole(bytes32,address)": "28980",
            "revokeRole(bytes32,address)": "infinite",
            "s_feed()": "2522",
            "setFeeds(address)": "infinite",
            "supportsInterface(bytes4)": "270",
            "transferOwnership(address)": "205744",
            "unpauseContract()": "infinite",
            "viewAccountTotalBalance()": "infinite",
            "viewContractBalance()": "2432",
            "viewContractState()": "infinite",
            "viewDepositsCount()": "2648",
            "viewWithdrawCount()": "2284",
            "withdrawETH(uint256)": "infinite",
            "withdrawUSDC(uint256)": "infinite"
        },
        "internal": {
            "_depositETH(address,uint256,uint256)": "infinite",
            "_withdrawETH(uint256)": "infinite",
            "_withdrawUSDC(uint256)": "infinite",
            "chainLinkFeeds()": "infinite",
            "convertEthInUSD(uint256)": "infinite"
        }
    }
}